{
  "contractName": "YanToken",
  "abi": [
    {
      "constant": true,
      "inputs": [],
      "name": "totalSupply",
      "outputs": [
        {
          "internalType": "uint256",
          "name": "",
          "type": "uint256"
        }
      ],
      "payable": false,
      "stateMutability": "view",
      "type": "function"
    },
    {
      "constant": false,
      "inputs": [],
      "name": "YanTokens",
      "outputs": [],
      "payable": false,
      "stateMutability": "nonpayable",
      "type": "function"
    }
  ],
  "bytecode": "0x6080604052348015600f57600080fd5b5060a28061001e6000396000f3fe6080604052348015600f57600080fd5b506004361060325760003560e01c80630224bca814603757806318160ddd14603f575b600080fd5b603d605b565b005b60456067565b6040518082815260200191505060405180910390f35b620f4240600081905550565b6000548156fea265627a7a723158208f4106acfefc87a7de6cd59f22395a25371b2d86ae7fd0f53198fb43967def8364736f6c63430005100032",
  "source": "pragma solidity >=0.4.22 <0.9.0;\n\ncontract YanToken {\n    //Cosntructor\n    //Set the total number of tokens\n    //Read the total num    ber of tokens\n    uint256 public totalSupply;\n    \n    function YanTokens() public{\n        totalSupply = 1000000;\n    }\n}\n",
  "sourcePath": "/home/nomadbitcoin/Documents/token_sale/contracts/YanToken.sol",
  "compiler": {
    "name": "solc",
    "version": "0.5.16+commit.9c3226ce.Emscripten.clang"
  },
  "schemaVersion": "3.4.0",
  "updatedAt": "2021-05-07T14:29:58.975Z",
  "networkType": "ethereum",
  "devdoc": {
    "methods": {}
  },
  "userdoc": {
    "methods": {}
  }
}